:1000000009C016C015C014C013C012C011C010C062
:100010000FC00EC011241FBECFE9CDBF20E0A0E667
:10002000B0E001C01D92A336B207E1F7C9D01BC1F1
:10003000E7CFBC98C49886B3BC9AC49A8295817065
:100040000895BC98C498089587B1816487B93D9A92
:1000500086B1836886B90895369A3699FECF85B100
:100060000895369A3699FECFF7DF4091600050919F
:100070006100282F30E0452B51F4C901E4E0880FDE
:10008000991FEA95E1F79093610080936000809159
:10009000600090916100AC0164E0569547956A95C7
:1000A000E1F7841B950B820F931F9093610080935F
:1000B000600074E0969587957A95E1F7089587B387
:1000C000836087BB88B38C7F88BB08958091620072
:1000D0008F5F843008F081E08093620008958CE0A7
:1000E00090E0ADD09FEF980F933008F081E08093BF
:1000F00062000895609162008CE090E0A7C098B320
:100100009C7F823031F0833031F0813029F491606E
:1001100003C0926001C0936098BB089580E0EFCF68
:1001200080916200ECCFFADF8CDF85B7877E80613B
:1001300085BF85B7806285BF889585B78F7DF8CFED
:100140008BDFD82F81E0DBDF8FE79BEB0197F1F7A7
:1001500000C0000080E0D3DF8FE79BEB0197F1F751
:1001600000C0000079DF81508E3F60F7C0E18FEB67
:100170009DE50197F1F700C0000073DF682FC150C3
:10018000B1F7D11103C08DE090E002C08EE090E0A5
:100190005DD081E0B4DF9FEF2BED85E091502040F2
:1001A0008040E1F700C0000080E0A9DF9FEF2BED69
:1001B00085E0915020408040E1F700C00000E9CF89
:1001C00038DFC82F7CDF40DF47DF81508E3F08F0EB
:1001D000B7DF8DE090E033D0082F8F3F09F40AE7B6
:1001E0008EE090E02CD0D82F8F3F09F4DCE877DF49
:1001F000CC2311F06BDF7EDF93DFC0E010E0ED2E4B
:10020000F12C2FDF90E00817190708F08CDFE816B3
:10021000F90620F0CF3F71F4CEEF0CC0CFEF80DFB6
:100220002FEF8DEE92E0215080409040E1F700C02A
:100230000000E7CFC150C53090F770DFF1CFE199F2
:10024000FECF8EBBE09A99278DB30895262FE199B2
:10025000FECF1CBA8EBB2DBB0FB6F894E29AE19A82
:0A0260000FBE01960895F894FFCF39
:00000001FF
