:1000000009C016C015C014C013C012C011C010C062
:100010000FC00EC011241FBECFE9CDBF20E0A0E667
:10002000B0E001C01D92A736B207E1F76FD04FC113
:10003000E7CF369A3699FECF85B10895369A36992C
:10004000FECFF7DF4091600050916100282F30E033
:10005000452B51F4C901E4E0880F991FEA95E1F7B7
:1000600090936100809360008091600090916100A6
:10007000AC0164E0569547956A95E1F7841B950BB2
:10008000820F931F909361008093600074E09695B7
:1000900087957A95E1F7089598B39C7F823031F087
:1000A000833031F0813029F4916003C0926001C047
:1000B000936098BB089580E0EFDFBC98C49885B743
:1000C000877E806185BF85B7806285BF889585B74B
:1000D0008F7DF8CF809166008F5F843008F081E0DB
:1000E00080936600089580916600D6CF909163005A
:1000F000981748F421E090E030916200381708F436
:1001000020E0822F089582E090E00895BC98C49882
:10011000D6B3BC9AC49A87B3836087BB88B38C7FFD
:1001200088BB87B1816487B93D9A86B1836886B9F7
:1001300080DF81508E3F08F443C07BDFD82F80E002
:10014000ABDF8FE79BEB0197F1F700C0000081E088
:10015000A3DF8FE79BEB0197F1F700C0000069DF99
:1001600081508E3F60F7C0E19FEF2DEE82E091500D
:1001700020408040E1F700C0000060DF682FC150E0
:1001800099F7D11103C08DE090E002C08EE090E0BD
:1001900091D081E081DF9FEF2BED85E091502040F1
:1001A0008040E1F700C0000080E076DF9FEF2BED9C
:1001B00085E0915020408040E1F700C00000E9CF89
:1001C0008DE090E070D08F3F09F487E88093630062
:1001D0008EE090E068D08F3F09F48EE98093620052
:1001E0002DDF84DF029709F466DF8CE090E05BD0BE
:1001F0009FEF980F933008F081E080936600D4FF62
:1002000006C068DF609166008CE090E053D06BDF41
:10021000D0E0DF5F13DF8D2F8F7051F50FDF66DFCA
:1002200020916400309165008217930709F181E005
:1002300033DF8FE599E00197F1F700C00000FEDEA3
:1002400055DF8C0150DF809164009091650080172C
:10025000910770F41093650000936400023011055B
:1002600019F20130110521F481E080936600CFEF8F
:100270008091640090916500019759F41FEF1C0F65
:10028000CB7FC150C23018F480E006DF01C02BDF05
:10029000C12F9FEF2DEE82E0915020408040E1F78A
:1002A00000C00000B6CFE199FECF8EBBE09A99273F
:1002B0008DB30895262FE199FECF1CBA8EBB2DBBBE
:1002C0000FB6F894E29AE19A0FBE01960895F89459
:0202D000FFCF5E
:00000001FF
