:1000000009C016C015C014C013C012C011C010C062
:100010000FC00EC011241FBECFE9CDBF20E0A0E667
:10002000B0E001C01D92A536B207E1F7A0D0E9C04B
:10003000E7CFBC98C49886B3BC9AC49A8295817065
:100040000895BC98C498089587B1816487B93D9894
:1000500086B1836886B90895369A3699FECF24B161
:1000600035B18091600090916100A0916200B091E3
:100070006300892B8A2B8B2B81F4C90144E0880F04
:10008000991F4A95E1F7A0E0B0E08093600090935B
:100090006100A0936200B0936300409160005091B2
:1000A00061006091620070916300DB01CA01820F00
:1000B000931FA11DB11D24E076956795579547952F
:1000C0002A95D1F7841B950BA60BB70B8093600084
:1000D00090936100A0936200B093630034E0B69502
:1000E000A795979587953A95D1F7089587B383603B
:1000F00087BB88B38C7F88BB0895809164008F5F35
:10010000843008F081E08093640008958CE090E0F2
:1001100064D09FEF980F933008F081E080936400E3
:100120000895609164008CE090E05EC098B39C7F7D
:10013000823031F0833031F0813029F4916003C096
:10014000926001C0936098BB089580E0EFCF8091EA
:100150006400ECCFFADF75DF85B7877E806185BFED
:1001600085B7806285BF889585B78F7DF8CFCF939F
:10017000DF931F92CDB7DD275CDF8983B7DF64DFB4
:10018000C5DF8981882319F0B8DF1AE001C010E0CB
:10019000DEDF00E061DF893E21E0920708F4DADF6C
:1001A0008133924020F40F3F99F40EEF11C00FEF0E
:1001B000CEDF112319F0115009F4B3DF8FEF9DEE5C
:1001C00022E0815090402040E1F700C00000E2CFE3
:1001D0000150053068F7B9DFECCFE199FECF8EBB57
:1001E000E09A99278DB30895262FE199FECF1CBA86
:1001F0008EBB2DBB0FB6F894E29AE19A0FBE019622
:060200000895F894FFCF01
:00000001FF
