:1000000009C021C020C01FC01EC01DC01CC01BC015
:100010001AC019C011241FBECFE9CDBF10E0A0E661
:10002000B0E0E2EAF3E002C005900D92A436B10719
:10003000D9F720E0A4E6B0E001C01D92AF36B207C8
:10004000E1F76CD0ACC1DCCF369A3699FECF369A48
:100050003699FECF85B1209165003091660090E021
:10006000232B51F49C0164E0220F331F6A95E1F7C2
:100070003093660020936500209165003091660002
:10008000820F931F44E0369527954A95E1F7821B2E
:10009000930B909366008093650054E09695879546
:1000A0005A95E1F7089598B39C7F1FBC823081F088
:1000B00048F4813081F412BE22E023BF23E82FBD33
:1000C00086BF09C0833031F0843029F4936003C0C7
:1000D000916001C0926098BB80936D00089580E0AC
:1000E000E2DFBC98C49885B7877E806185BF85B7FD
:1000F000806285BF889585B78F7DF8CF0895089574
:10010000089530E629E0522F432F41505040E9F73F
:100110008A95C9F7089580916E00C5CFBC98C498A0
:10012000C6B3BC9AC49A87B3836087BB88B38C7FFD
:1001300088BB87B1816487B93D9A86B1836886B9E7
:1001400080E090E018D18F3F09F48AE780936A003D
:1001500081E090E010D18F3F09F484E8809369003A
:1001600082E090E008D18F3F09F48FE88093680027
:1001700083E090E000D18F3F09F489E0809367002D
:1001800063DF90916A00981708F098C084E090E0CF
:10019000F2D080936E009FEF980F943030F08B5028
:1001A000833018F081E080936E00C4FF2AC085E0A0
:1001B00090E0E1D001E0080F602F85E090E0E2D010
:1001C0000130B1F480916E0091E0980F8B50833034
:1001D00050F49E3018F490936E0003C08BE080932F
:1001E0006E00D1E012C09530B0F300936E00F9CFED
:1001F000023051F480916E008B50833078F781E0AB
:10020000EECFD0E000E001C0D0E085DFCFEFF12CF1
:1002100010E082E0E82EDD24D3948FEFF81689F009
:10022000F39487E0F8120DC0002321F060E085E030
:1002300090E0A8D0DD2329F060916E0084E090E08A
:10024000A1D002DF812F8F7109F04AC0FDDE9091AD
:100250006D00933051F0943029F0923051F4909128
:10026000670006C090916700890F90916700990F11
:10027000890F90916A00981770F49091690098170F
:1002800068F441E090E020916800281708F440E00D
:10029000242F392F05C023E030E002C022E030E0F7
:1002A00080916B0090916C0082179307C8F4309393
:1002B0006C0020936B002330310509F410DF80912E
:1002C0006E0095EF980F933058F02230310519F4F5
:1002D000D0926E0004C0833010F0E0926E00C6E051
:1002E00080916E0095EF980F933078F58C3031F057
:1002F0008D3039F0812F8F7319F124C010FF20C089
:1003000021C0812F877099F590916400E92FE695BF
:10031000E695E695F0E0E05AFF4F208130E0492F66
:1003200050E0409550954770552702C03595279568
:100330004A95E2F79F5F9F719093640020FF02C08F
:1003400084E001C080E0AFDE12C080916B0090912C
:100350006C00892B61F0CC24CA94CC0ECB7FC150A9
:10036000C23018F480E09FDE01C0D5DECC2D1F5FC7
:1003700082E3C7DE52CFE199FECF8EBBE09A992788
:100380008DB30895262FE199FECF1CBA8EBB2DBBED
:100390000FB6F894E29AE19A0FBE01960895F89488
:0203A000FFCF8D
:0403A20055DDD50050
:00000001FF
