:1000000009C021C020C01FC01EC01DC01CC01BC015
:100010001AC019C011241FBECFE9CDBF10E0A0E661
:10002000B0E0E8E9F3E002C005900D92A436B10714
:10003000D9F720E0A4E6B0E001C01D92AD36B207CA
:10004000E1F77AD0A7C1DCCF369A3699FECF85B1D9
:100050000895369A3699FECFF7DF409165005091AA
:100060006600282F30E0452B51F4C901E4E0880FE9
:10007000991FEA95E1F7909366008093650080915F
:10008000650090916600AC0164E0569547956A95CD
:10009000E1F7841B950B820F931F9093660080936A
:1000A000650074E0969587957A95E1F708959091AB
:1000B0006900981768F490916800981758F421E047
:1000C00090E030916700381708F420E0822F0895FF
:1000D00083E001C082E090E0089598B39C7F1FBC4C
:1000E000823081F048F4813081F412BE22E023BFD7
:1000F00023E82FBD86BF09C0833031F0843029F456
:10010000936003C0916001C0926098BB089580E045
:10011000E4DFBC98C49885B7877E806185BF85B7CA
:10012000806285BF889585B78F7DF8CF0895089543
:10013000089580916C00D1CFBC98C498C6B3BC9A86
:10014000C49A87B3836087BB88B38C7F88BB87B131
:10015000816487B93D9A86B1836886B980E090E072
:1001600005D18F3F09F487E88093690081E090E032
:10017000FDD08F3F09F482E98093680082E090E02F
:10018000F5D08F3F09F48EE98093670062DF8FDF3F
:10019000039709F4BCDF83E090E0E8D09FEF980F6D
:1001A000943028F095EF980F933008F081E0809319
:1001B0006C00C4FF2AC084E090E0D8D011E0180F92
:1001C000612F84E090E0D9D01130B1F480916C00BF
:1001D00091E0980F8B50833050F49E3018F4909338
:1001E0006C0003C08BE080936C00D1E012C09530AE
:1001F000B0F310936C00F9CF123051F480916C0081
:100200008B50833078F781E0EECFD0E010E001C072
:10021000D0E08FDFCFEFF12C00E082E0E82EDD248C
:10022000D3940F5F2FEFF21689F0F3948AE0F8125F
:100230000DC0112321F060E084E090E09ED0DD232A
:1002400029F060916C0083E090E097D002DF802F6E
:100250008F71D9F5FEDE2BDF20916A0030916B00A3
:100260008217930791F180916C00823048F082E010
:1002700034DF80EF90E00197F1F7CC24C39401C004
:10028000C12CE2DE14DF5C01C11053DF80916A00F3
:1002900090916B008A159B05C0F4B0926B00A09200
:1002A0006A0093E0A916B10409F474CF80916C0040
:1002B0008B50833050F022E0A216B10419F4D09292
:1002C0006C0002C0E0926C00C6E080916C0095EF7B
:1002D000980F933078F58C3031F08D3039F0802FD5
:1002E0008F7319F124C000FF20C021C0802F8770B8
:1002F00099F590916400E92FE695E695E695F0E092
:10030000E05AFF4F208130E0492F50E04095509552
:100310004770552702C0359527954A95E2F79F5FAC
:100320009F719093640020FF02C084E001C080E0D0
:10033000D4DE12C080916A0090916B00892B61F02D
:10034000BB24BA94BC0ECB7FC150C23018F480E0FD
:10035000C4DE01C0EEDECB2D8FEF96E721E08150A9
:1003600090402040E1F700C000005BCFE199FECF54
:100370008EBBE09A99278DB30895262FE199FECF81
:100380001CBA8EBB2DBB0FB6F894E29AE19A0FBE51
:0803900001960895F894FFCFD7
:0403980055DDD5005A
:00000001FF
